:10C000005542200135D0085A8245200231400004B3
:10C010003F4000000F9308249242200220012F830A
:10C020009F4F2EC30002F8233F4020000F930724A8
:10C030009242200220011F83CF430002F923218274
:10C04000B240185A2001D2D300005F42FF107F9304
:10C050000120FF3FC2435600D242FF105700D24298
:10C06000FE105600F24006002600F2400600410095
:10C07000F2D080FF6100F2426200C2436300F240EE
:10C080000A006400F2F0FEFF6100D2D30100F2D09A
:10C09000C0FF2A00F2D0C0FF2900F2F03F002E00BE
:10C0A000F2F03F004200F2D021002A00F2F0DEFF61
:10C0B0002900F2F0DEFF2E00F2F0DEFF4200F2D0A7
:10C0C00060002200F2F09FFF2100F2D06000260005
:10C0D000B240204E720182437401B240E00064011C
:10C0E000B24010026001F2D01E002A00F2F0F3FF0D
:10C0F0002900F2D012002E00B240F4019201B240A9
:10C10000C000840182439401B240C0008601824392
:10C110009601B240100280011E42000232D0180087
:10C120001E92000224240C410D412D531E420E028A
:10C130001F420C02B01218C21F4102003FE31F53FE
:10C14000B01298C14B4F2F41B012D8C14F9302206B
:10C150004B930424F2D040002900033CF2F0BFFFCF
:10C1600029009242100274011E420002D73F82430E
:10C17000940182439601F2F0F3FF29008243740197
:10C18000F25080FF2900CA3F32D0F000FD3F30401E
:10C190002CC3824F740130415E4229001F930B383B
:10C1A0007EF0FBFFC24E29003F9033000C348243E7
:10C1B00094014F4330416ED2C24E29003F90CEFFD2
:10C1C00006343F50F401824F94015F433041B24046
:10C1D000F50194014F4330415E4229001F930B3813
:10C1E0007EF0F7FFC24E29003F9033000C348243AB
:10C1F00096014F4330417ED2C24E29003F90CEFF80
:10C2000006343F50F401824F96015F433041B24003
:10C21000F50196014F4330410B123F5024FA3E5036
:10C2200024FA0B4E0B5F0E8F3B90F50104343B90CC
:10C230000CFE0438053C3B40F401023C3B400CFE44
:10C240003E90F50104343E900CFE0438053C3E401F
:10C25000F401023C3E400CFE8D4B00008C4E000071
:10C260003B4130410F129292000202020F201F4206
:10C2700004023F900A00063882430402B1C0100055
:10C280000200063C1F53824F0402023C8243040218
:10C290009242000202023F4100130F120E120D12D1
:10C2A0005E4266001F4206021F930C242F93102447
:10C2B0000F9336207E90200035208243080292435F
:10C2C0000602303C7E9040002B20A24306022A3C0E
:10C2D0001D4208021DB30C200F4D0F11824F0A02A0
:10C2E0000F5F3F500C02CF4E0000CF430100073CD0
:10C2F0001F420A020F5F4E4E8E108FDE0C021D533E
:10C30000824D08023D9015000D38F2D080FF2900C3
:10C310008243060292530002B1C010000600023CA4
:0EC32000824306023D413E413F41001300139F
:10FFE0008EC18EC18EC18EC18EC18EC18EC19AC28C
:10FFF0008EC18EC164C28EC18EC18EC18EC100C041
:040000030000C00039
:00000001FF
